:020000040800F2
:10000000100700205D01000807030008D90200085E
:10001000FF02000841020008570900080000000024
:100020000000000000000000000000000D070008B4
:100030004D020008000000004F0500084D070008B1
:1000400045020008470200085509000800000000AA
:10005000000000004B020008510900085309000885
:100060000907000800000000E10200084D05000833
:100070005B090008000000004B0900084D0900085A
:100080004F0900083D020008000000004902000876
:100090000B07000800000000000000000000000046
:1000A0000000000000000000000000003F02000807
:1000B0005D0200085F020008610200086302000898
:1000C00000F002F800F03AF80AA090E8000C824430
:1000D0008344AAF10107DA4501D100F02FF8AFF20D
:1000E000090EBAE80F0013F0010F18BFFB1A43F016
:1000F000010318471813000038130000103A24BFFA
:1001000078C878C1FAD8520724BF30C830C144BF7C
:1001100004680C60704700000023002400250026BE
:10012000103A28BF78C1FBD8520728BF30C148BF5A
:100130000B6070471FB51FBD10B510BD00F04BF828
:100140001146FFF7F7FF00F0B1FC00F069F803B4C7
:10015000FFF7F2FF03BC00F037F8000009488047C2
:1001600009480047FEE7FEE7FEE7FEE7FEE7FEE799
:10017000FEE7FEE7FEE7FEE704480549054A064BB1
:100180007047000005080008C100000810010020A9
:10019000100700201003002010030020B2F12003FC
:1001A0000AD5C2F1200301FA02F120FA03F300FAA2
:1001B00002F041EA0301704700FA03F14FF000003A
:1001C000704770477047704701491820ABBEFEE783
:1001D000260002007047754600F02CF8AE46050078
:1001E0006946534620F00700854618B020B5FFF752
:1001F000C3FFBDE820404FF000064FF000074FF06E
:1002000000084FF0000B21F00701AC46ACE8C00934
:10021000ACE8C009ACE8C009ACE8C0098D4670473D
:1002200010B50446AFF300802046BDE81040FFF74C
:100230008EBF000000487047B00000207047704734
:1002400000BFFEE770477047704770477047000077
:100250000149086070470000008001407047704706
:100260007047704710B500F0C7FB044800F039F83C
:100270000321024800F04BFA10BD000024000020CA
:1002800010B500240721002000F068F9012000F0DB
:100290005FF900BF00F082F9012804D02046641CF9
:1002A000B0F5802FF6D300F079F9012801D00020B5
:1002B00010BD0121082000F0C1F91820FFF7C8FF88
:1002C000012000F085F9002000F088F94FF48070DB
:1002D00000F090F90120EBE701E000F015F8FCE7F1
:1002E000704710B50446204600F09CFB04F108005E
:1002F00000F098FB04F1100000F094FB10BD01E049
:1003000000F002F8FCE77047BFF34F8F0648006823
:1003100000F4E06005490843001D03490860BFF38D
:100320004F8F00BFFEE700000CED00E00000FA0573
:100330002DE9FE4F4768D0F808C0D0F80C80D0F8FF
:100340001090D0F814A0CDF808A0D0F818A0CDF8DF
:1003500004A0D0F81CA0CDF800A0002201230325A2
:100360004FF001160C885FE004F0010ABAF1000FAB
:1003700055D027EA030A91F802B00BFA02FB4AEAC9
:100380000B0791F808A04FEA420B0AFA0BFA2CEA85
:10039000050B4AEA0B0C28EA030A91F80AB00BFA9B
:1003A00002FB4AEA0B0829EA060A91F803B002F1B7
:1003B000100E0BFA0EFB4AEA0B0A91F804B00BFA86
:1003C00002FB4AEA0B09DDF808A02AEA060A91F8BE
:1003D00005B00BFA0EFB4AEA0B0A91F806B00BFACD
:1003E00002FB4AEA0B0ACDF808A091F809A04FEAEF
:1003F000420B0AFA0BFADDF804B02BEA050B4AEAC5
:100400000B0ACDF804A0DDF800A02AEA030A91F84F
:1004100007B00BFA02FB4AEA0B0ACDF800A05B001A
:10042000AD007600521C6408002C9DD1DFF8C4A0FA
:10043000504502D14FF01F0A01E04FF0000A27EAB1
:100440000A0AC0F804A0DFF8ACA0504502D14FF072
:100450001F0A01E04FF0000A2CEA0A0AC0F808A0BF
:10046000DFF890A0504502D14FF01F0A01E04FF095
:10047000000A28EA0A0AC0F80CA0DFF878A0504564
:1004800002D14FF01F0A01E04FF0000A29EA0A0AE0
:10049000C0F810A0DFF85CA0504502D14FF01F0B50
:1004A00001E04FF0000BDDF808A02AEA0B0AC0F8C3
:1004B00014A0DFF840A0504502D14FF01F0B01E01F
:1004C0004FF0000BDDF804A02AEA0B0AC0F818A0D0
:1004D000DFF820A0504502D14FF01F0B01E04FF094
:1004E000000BDDF800A02AEA0B0AC0F81CA0BDE84A
:1004F000FE8F000000000C400268054B984201D1BD
:100500001F2300E000230B439A4302607047000062
:1005100000000C400268054B984201D11F2300E007
:1005200000239A430A4302607047000000000C4019
:100530004FF6FF71018000218170C170017141711E
:100540008171C17101724172817270477047704749
:1005500001490860704700008800404210B502461B
:100560000C4BD86820F003001043D860586820F482
:10057000706040EA01205860074B1B6843B10123BB
:10058000054C241D23600023034C883CC4F88C30A8
:1005900010BD0000000002408800404238B5002035
:1005A000009000BF212000F02FF805460098401C65
:1005B00000900098B0F5C06F01D2002DF2D021203C
:1005C00000F022F808B1012400E00024204638BDE4
:1005D0000149086070470000880140420146044A12
:1005E000D06820F0F00040EA0110D06070470000B1
:1005F000000002400146034AD06820F440700843DE
:10060000D06070470000024010B5014601F0E003E1
:10061000202B02D1074B1A6801E0074BDA6B01F07F
:100620001F040123A34013400BB1012000E0002070
:1006300010BD00000000024000800D4029B1064AB4
:10064000D2690243044BDA6104E0034AD26982436F
:10065000014BDA61704700000000024070B50546AA
:100660000C46054A02EBC4029188034A52F8340052
:10067000FFF742FF70BD0000D41300082DE9F05FC2
:1006800004460D46164601274FF00008012E09DBEF
:10069000721EBA46C34650465946FFF77FFD0746CD
:1006A000884602E00020BDE8F09F4FF0000925E0F9
:1006B00004EA070005EA08010023584059400843AE
:1006C00004D001210F4800F031F803E001210D486A
:1006D000FFF7C4FF24196D41032000F067F90021E2
:1006E000084800F023F8032000F060F900210548D5
:1006F000FFF7B4FF09F1010000F0FF09B145D7DBB6
:10070000E0B2D0E7D413000870477047704731B1AA
:10071000012906D0022903D0032904D102E002E016
:1007200001E000E000BF00BF7047000070B5054663
:100730000C46054A02EBC4029188034A52F8340081
:10074000FFF7E8FE70BD0000D413000802480068FF
:10075000401C0149086070473C00002000204FF019
:10076000E0210861024848610720086170470000E5
:100770007F38010030B5204CE46804F00204022CFC
:1007800001D11E4800E01D481B4CE46804F0010440
:1007900004B140080146184CE46804F00404042C39
:1007A00005D1154C6468C4F30324631C5943124CEF
:1007B000E468C4F3012424B1012C06D0022C13D127
:1007C0000DE00E4C0E4D2C6013E00B4CE468C4F3AE
:1007D0000314641CB1FBF4F2094C226009E04FF4ED
:1007E0000044074D2C6004E049F64044044D2C6061
:1007F00000BF00BF30BD00000000024000127A00C0
:100800004400002000B510200749C8610020C860DE
:10081000486088600861486188610862486288624F
:10082000C862FFF7A7FF00BD000002400246104B60
:10083000586A104B9A4205D120F0FF00084340F05F
:10084000807012E00C4B9A4206D120F47F4040EABF
:10085000012040F0007008E0084B9A4205D120F4D6
:100860007F0040EA014040F08060014B58627047D1
:1008700000000240000007400080074000000840E0
:10088000426D8A43426570470A46C16812B141F021
:10089000010101E021F00101C160704730B50C8811
:1008A00004604C8844608C888460CC880D892C441A
:1008B0004D892C448D892C44CD896319C3604C8AA1
:1008C0000D8A04EB05148D8A2C44CD8A62190265C9
:1008D00030BD0021018041808180C1800181418142
:1008E0008181C181018241828182C1827047002160
:1008F000C160016041608160016241628162C162E8
:10090000016341638163C163016641668166C166BB
:10091000016141618161C161016741678167C167AF
:10092000016441648164C164016541658165C1659B
:1009300070470246536D0B400BB9002000E00120C8
:10094000704781607047016070477047704770471B
:1009500070477047704700BFFEE7704770B50646A6
:1009600014461D4622462B46304600F001F870BD65
:1009700070B5044615461E4602210B48FFF76EFE71
:10098000052220460021FFF779FE24222846314621
:10099000FFF774FE01210448FFF760FE02210248C0
:1009A000FFF7C4FE70BD0000D413000810B5044664
:1009B00004EB84000122C2EB800081B20D48FFF7F6
:1009C000C0FF00210B48FFF7BEFF01210948FFF7D8
:1009D0005BFF00BF02210748FFF7ABFF0028F9D0FB
:1009E00000210448FFF750FF02210248FFF748FFAB
:1009F00010BD00000080074070B5002500240725C9
:100A000000BF06E0064901EBC40000F00BF8601CD3
:100A1000C4B2AC42F6DB02210148FFF787FE70BD8D
:100A2000D41300083EB504462168C1F3C432012145
:100A300001FA02F0FFF702FE6846FFF779FDA08891
:100A4000ADF8000001208DF8020000208DF80800AC
:100A500001208DF80A0002208DF8090069462068FF
:100A6000FFF766FC3EBD000010B50121C803FFF78B
:100A7000E5FD0C48FFF73BFF0B48FFF72AFF00217D
:100A80000848FFF7D3FE03200749488007208880E5
:100A90000020C8800881C88108800248FFF7FEFE58
:100AA00010BD00000080074098000020FFF7E8FB21
:100AB00047490870FFF752FEFFF7D4FB0221454873
:100AC000FFF728FD80214448FFF724FD00F0A6F938
:100AD0003F48007828B980213F48FFF70DFD00BF4F
:100AE000FEE7102000F050F93C4800F02BF93B489D
:100AF0000468436822460020FFF730FF384800F0C2
:100B000071F83748046B436B22461020FFF726FF2D
:100B1000324800F02DF9314804684368224611201C
:100B2000FFF71CFF2D4800F027F92C4804684368A4
:100B300022461220FFF712FF4FF47A70FFF736FFBC
:100B4000132000F021F926498C6BCB6B2246102034
:100B5000FFF704FF214800F00BF920490C684B68AF
:100B600022461420FFF7FAFE1C4800F005F91B4945
:100B70000C684B6822461520FFF7F0FE4FF47A70A0
:100B8000FFF714FF02211348FFF7C4FC802112482D
:100B9000FFF7C0FC1BE01248046B436B2246102099
:100BA000FFF7DCFE102000F0EFF841F6E730FFF72A
:100BB000FDFE0B498C6BCB6B22461020FFF7CEFE5F
:100BC000102000F0E1F841F6E730FFF7EFFEE2E732
:100BD0002100002000800B4000800A401900002006
:100BE000480000202DE9FF47044600211020216025
:100BF00060605048A060E1604F4820616161400042
:100C0000A061E1614D490020216260624C49A1620E
:100C1000E06222696169104600F05CFACDE90201E8
:100C2000A268E168104600F055FA07468846226837
:100C30006168104600F04EFA3A464346CDE900019D
:100C400000F0F0F80546DDE9022300F089FA81465C
:100C500000F084FB20636163A269E169104600F043
:100C600039FA07468846A268E168104600F032FA71
:100C700005460E4622686168104600F02BFA814650
:100C80002A46334600F0CEF83A464346CDE9000105
:100C900000F066FACDE9020100F060FBA063E163B9
:100CA000226A616A104600F015FA81468A46A268F7
:100CB000E168104600F00EFA07468846226861682F
:100CC000104600F007FA05463A46434600F0AAF8F7
:100CD0004A465346CDE9000100F042FACDE902014F
:100CE00000F03CFB20646164A26AE16A104600F0F7
:100CF000F1F981468A46A268E168104600F0EAF9F7
:100D000005460E4622686168104600F0E3F9074682
:100D10002A46334600F086F84A465346CDE900019C
:100D200000F01EFACDE9020100F018FBA064E164B6
:100D3000BDE8FF8780C3C901404B4C00C0C62D00F1
:100D400000093D00002202604260017821F00101AB
:100D50000170817821F0080108318170417821F01B
:100D6000F0014170817821F00701091D8170704701
:100D700000220260426070470022026042604178B7
:100D800021F080014170704770B50446002504B918
:100D900070BD132C13D003DC3CB1102C2AD105E01C
:100DA000162C15D0192C25D11BE024E006211A4859
:100DB000FFF754FC05211848FFF750FC1BE0062103
:100DC0001548FFF74BFC05211348FFF7AFFC12E075
:100DD00006211148FFF7AAFC05210F48FFF73EFC4A
:100DE00009E006210C48FFF7A1FC05210A48FFF79E
:100DF0009DFC00E000BF00BF03210748FFF796FC01
:100E0000002501E0681CC5B2322DFBDB032102483E
:100E1000FFF724FC00BFBBE7D413000810B5FFF7B1
:100E200023FE10BD2DE9C04130B4DFF8A0C23CEA7A
:100E3000111418BF3CEA131400F0EC8081EA03059A
:100E40001CEA111444EAD57418BF1CEA131500F00B
:100E5000C780A4EB05044FF0004545EAC12145EAEF
:100E6000C32341EA505143EA525304F17F7499423B
:100E700004F500344FEAC0204FEAC22208BF904276
:100E800000F09C804FEA13650FF24016765D4FEA42
:100E9000134506FB05F7C7F1807706FB07F74FEA16
:100EA000D737A7FB03687642C8F58038A7FB06CE84
:100EB00038BFA8F1010807FB08E64FF0000EA6FBBB
:100EC000028CE6FB03CEDCF1000CCEF1004E38BF05
:100ED000AEF1010EA6FB0C584FF000074FF00005D5
:100EE000E6FB0E87A1FB08C6A0FB07CE16EB0E069D
:100EF00045F10005E1FB076515F1E04E7EBFA4F565
:100F000080345FEA46066D4116F1800745F1000521
:100F10004FEA17274FEA066647EA0567A6F1DE465D
:100F2000B6F1805F4FEA15251FD9384624F0010C31
:100F300005EBC471BCF1FE6F01EB0C1102D8F0BCE3
:100F4000BDE8008124425CBF01F5801E9EEAC47F9B
:100F500002D4F0BCBDE80081244238D4F0BCA1F139
:100F6000C041BDE8004100F0F3B94FEAD22242EAA5
:100F700043524FEAD323A7FB02864FEAD02040EA30
:100F8000415007FB03661EEA0E0F4FEAD12105FB15
:100F9000026658BFA6EB0056B6EB00564FEA520E5B
:100FA0004EEAC37E18EB0E0E56EB530EBDD518EB72
:100FB00002085E417F1C55F10005B6E74FF480152D
:100FC0004FF000074FF000064FF00008ADE7F0BC0F
:100FD0004FF0000001F1C04101F00041BDE8008187
:100FE00011EA0C1F0CEA131500D00CE013EA0C1FD9
:100FF00000F025804FF00000F0BC81EA030101F011
:101000000041BDE80081F0BCBDE8004181EA030178
:1010100000F09EB9F0BCBDE8004170B500F04AF99F
:10102000097EFC3E00F007B881EA03014FF00000A2
:1010300001F00041704781EA030100F089B9F0BC7A
:10104000BDE800414FF0000021497047FFFDFBF96A
:10105000F7F5F4F2F0EEEDEBE9E8E6E4E3E1E0DEEB
:10106000DDDBDAD8D7D5D4D3D1D0CFCDCCCBCAC85D
:10107000C7C6C5C4C2C1C0BFBEBDBCBBBAB9B8B784
:10108000B6B5B4B3B2B1B0AFAEADACABAAA9A8A877
:10109000A7A6A5A4A3A3A2A1A09F9F9E9D9C9C9B45
:1010A0009A999998979796959594939392919190F0
:1010B0008F8F8E8E8D8C8C8B8B8A89898888878781
:1010C0008685858484838382828181800000FF07F6
:1010D0000000F87FB1FA81F30B3B20D3994010D187
:1010E000B0FA80F310FA03F108BF7047C3F11D0393
:1010F00003F580634FEAD1224FEA415002EB0351DE
:101100007047C3F1200C20FA0CFC9840C3F1320365
:1011100003F5806341EA0C0101EB0351704710B500
:10112000C3F10004C3F1320CC4F1200E0CF580624F
:1011300001FA0EFC21FA04F100FA0EF3E040BDE8DA
:10114000104040EA0C0001EB025138BF7047401CD0
:1011500041F100015B0008BF20F001007047000072
:10116000DFF848C170B51CEA111E1EBF1CEA13153A
:101170009EEA0C0F95EA0C0F00F06F8081EA0304E1
:1011800023EA4C134EEAD47E21EA4C1141F480113B
:1011900043F48013AE44A1FB024CA0FB0365AEF107
:1011A0007F7E361955EB0C05A1FB034C4CF1000377
:1011B000A0FB021C16EB0C06654153F1000309422B
:1011C00018BF46F0010613F4007F0BD14FEA03313C
:1011D0004FEA0530340341EA155140EA16506FF0EA
:1011E00003020AE04FEAC3214FEAC520F40241EAB4
:1011F000555140EA56506FF0020202EB2E4201EBCD
:10120000025585EACE710AD05FEA440C18BF24F07B
:10121000004450F1000041F1000120EAD47040F296
:10122000FE7C624500D270BDA84214BF4FF08044DE
:101230004FF04044002E08BF0024BEF1806FA8BFCD
:10124000A1F1C041BDE8704080F282804FF0000003
:1012500001F1C04101F0004170479EEA0C0F0CEA19
:10126000131518BF95EA0C0F06D04FF0000081EA65
:10127000030E0EF0004170BD00F01CF88900013E25
:1012800000F007B800F009B84FEA430C5FEA5C5C75
:1012900008D081EA030100F05BB84FEA410C5FEA35
:1012A0005C5CF6D14FF00000014970470000FF0779
:1012B0000000F87F0EF1020E2EF0030E5EF8046BB4
:1012C000364205D4012A43EB030515F5001F12D859
:1012D000012841EB010C1CF5001F0CD80ED14FEA80
:1012E000D17C15F5001F0CEB4C0C0CF1020C08BF67
:1012F0004CEBD37C04E04FF0080C01E04FEAD37CC8
:101300000CEB4C0526FA05F606F00706B6F1040CC0
:1013100006D20EEB860CBDE870404CF0010C604725
:10132000DFE80CF0090B02024FF000414FF0000023
:10133000A1F5002170BD19461046012851EB0104AA
:1013400018BFD4F5001484BF002001F0004170BD27
:101350000808A0F500114FEA310170474FEAC12398
:101360000A1543EA50534FEAC02C18BF43F000431C
:101370001BD4A2F24E02D2F57C72C0F22080502A19
:10138000A8BF502223FA02F12CFA02F060B4D2F185
:10139000200284BF03FA02F52843C2F100029CBF79
:1013A00023FA02F5284360BC704701F1804212F530
:1013B000801F04DA4FF000004FF00001704770B555
:1013C000FFF778FF49922480002001E06FEAE17086
:1013D0000146704700800A400100000000800A407A
:1013E0002000000000800A401000000000000B40B8
:1013F0000100000000000B400004000000000B4052
:101400000400000000000B40020000002C14000843
:101410000000002048000000FC00000874140008D0
:1014200048000020C80600001801000800800B409A
:101430000200000000800B400400000000800A4011
:10144000800000000000000000000000000000001C
:1014500000800B400200000000800B4004000000F0
:1014600000800A4080000000000000000000000032
:0414700000127A00EC
:04000005080000C12E
:00000001FF
