:020000040800F2
:100000003007002071010008770700085107000839
:100010006F070008F1050008191200080000000031
:10002000000000000000000000000000710E000849
:100030001F07000800000000CF090008F50E0008A7
:10004000F5050008F7050008171200080000000079
:10005000000000001D070008F9100008FB10000850
:100060006D0E00080000000059070008CD090008C7
:100070001D12000800000000F3100008F510000831
:10008000F7100008ED05000800000000F905000861
:100090006F0E0008000000000000000000000000DB
:1000A000000000000000000000000000EF05000854
:1000B0002D0700082F070008310700083307000844
:1000C00000F002F800F044F80AA090E8000C824426
:1000D0008344AAF10107DA4501D100F039F8AFF203
:1000E000090EBAE80F0013F0010F18BFFB1A43F016
:1000F00001031847041C0000241C0000103A24BF10
:1001000078C878C1FAD8520724BF30C830C144BF7C
:1001100004680C60704700000023002400250026BE
:10012000103A28BF78C1FBD8520728BF30C148BF5A
:100130000B60704703681B0A28BF41F08001F52956
:1001400000F06480002070471FB51FBD10B510BDC2
:1001500000F019FA1146FFF7F7FF01F01FF900F060
:1001600037FA03B4FFF7F2FF03BC00F005FA000012
:100170000948804709480047FEE7FEE7FEE7FEE73B
:10018000FEE7FEE7FEE7FEE7FEE7FEE70448054977
:10019000054A064B70470000AD0F0008C10000087B
:1001A0003001002030070020300300203003002001
:1001B000B2F120030AD5C2F1200301FA02F120FABC
:1001C00003F300FA02F041EA0301704700FA03F179
:1001D0004FF00000704700000FB41CB50C0007AAD8
:1001E000009001D02044401E074B7B44694601909B
:1001F000069800F0A0F9002C03D06946002000F01A
:10020000ADF91CBC5DF814FB790300002DE9F04149
:100210008046D21D22F007020025D2E90002F5290E
:1002200015A614D0011E72F1000106DA0023D0EBEE
:10023000030063EB020211A608E0D8F800108B0758
:1002400001D50FA602E0490701D50EA601251146EA
:10025000002408F1240704E000F0C9F830323A55D0
:10026000641C50EA0102F7D12B4632462146404633
:10027000BDE8F04100F000B9000000002D000000D2
:100280002B000000200000002DE9F0474FF0000A8D
:1002900089460446C0F820A02046E1688847002827
:1002A00076D0252806D0D4E901219047206A401C49
:1002B0002062F1E7E168204600268847C4F81CA0C8
:1002C00005460027C4F818A02A2D09D0284600F0BA
:1002D000A6FF38B304EB8708303DC8F8185019E082
:1002E00059F8041B204604EB87029161E1688847B6
:1002F000012F054618D1E069002820DA26F02006F3
:100300001DE0D8F8180000EB800005EB4000303805
:10031000C8F818002046E1688847054600F07FFFCE
:100320000028EED1012F0AD02E2D08D12046E168F9
:1003300088477F1C0546022F46F02006C4DBA069D3
:10034000002803DA404246F00106A061F00701D020
:1003500026F010066C2D0AD0682D08D04C2D39D00F
:100360006A2D35D0742D35D07A2D33D016E0E16862
:100370002F4620468847B84205460AD16C2F27D021
:100380004FF48060E168064320468847054605E053
:1003900027E06C2F1AD04FF4807006430DB3A5F1FF
:1003A0004100192802D8203546F400664A462946FD
:1003B000204626604E46FFF7BDFE80B101280BD0D7
:1003C000F61D26F0070000F1080965E74020E4E784
:1003D0008020D7E70020D5E706F104095CE728462E
:1003E00061E7206ABDE8F08770477047704730B515
:1003F000B0F10A024FEA900E71F100034EEA817EDD
:10040000B0EB0E0061EB91014FEA101E4EEA017E47
:1004100010EB0E0041EB11114FEA102E4EEA016E67
:1004200010EB0E0041EB11214FEA104E4EEA014E47
:1004300010EB0E0041EB1141401841F100014FEA71
:10044000D00040EA41704FEAD10110EB80054FEA3D
:10045000810444EA907444EB01046D1944EB0404F4
:10046000521BA3414FF0000348BF0A3200D530BDF4
:10047000401C41F1000130BD2DE9F0470D46994681
:100480009246044600F124080168880604D5E06914
:1004900021F01001216000E00120A84201DD471B8E
:1004A00000E00027A1697A1902EB0900081AA0618F
:1004B0002078C00602D42046AFF30080002608E072
:1004C000D4E901211AF806009047206A401C761CE6
:1004D00020624E45F4DB2078C0060AD52046AFF3F3
:1004E000008006E0D4E9012130209047206A401CBA
:1004F0002062381EA7F10107F4DC07E0D4E90121EE
:1005000018F805009047206A401C2062281EA5F1BB
:100510000105F3DC2046AFF300802078000602D509
:100520000220BDE8F0870120FBE7000001694A1CBA
:1005300002610878704700B58FB0CDE90131002124
:10054000059105497944CDE9031011466846FFF746
:100550009BFE0FB000BD0000E5FFFFFF0A6802F838
:10056000010B0A607047D1E900239A4202D2531C62
:100570000B6010707047000001491820ABBEFEE709
:10058000260002007047754600F02CF8AE460500C4
:100590006946534620F00700854618B020B5FFF79E
:1005A000F5FDBDE820404FF000064FF000074FF08A
:1005B00000084FF0000B21F00701AC46ACE8C00981
:1005C000ACE8C009ACE8C009ACE8C0098D4670478A
:1005D00010B50446AFF300802046BDE81040FFF799
:1005E000C0BD000000487047D00000207047704731
:1005F00000BFFEE7704770477047000070B50025E8
:10060000012000F095FB07E000F0B0FB0446012C50
:1006100000D103E0681CC5B20F2DF5DB00BF012C33
:1006200003D00121104800F024FC0921022000F031
:10063000D5F9012000F0CCF900BF00F0EFF9012856
:10064000FBD10121082000F0ABFB182000F068F876
:10065000002000F003FA012000F0FAF94FF4807056
:1006600000F008FA70BD00000000002070B588B0EE
:1006700006460C4615460121204600F091FB05A8D0
:1006800000F096F903208DF81D0001208DF81E0062
:100690000121400700F084FB03208DF81C0001209D
:1006A0008DF816000220ADF8140005A90F4800F0DF
:1006B00077F801956020ADF808000020ADF80A0039
:1006C000ADF80C00ADF80E004FF48070ADF81000DE
:1006D00001A9304600F044FD0021304600F00EFD37
:1006E0000121304600F028FD08B070BD00800E40AA
:1006F00070B504460AE000BF0821074800F028FD55
:100700000128F9D02946044800F082FD14F8015B65
:10071000002DF0D170BD000000800340704770478D
:100720000149086070470000008001407047704731
:100730007047704710B500F0D7FD044800F00DF881
:100740000321024800F095FB10BD000018000020B6
:1007500001E000F011F8FCE7704710B5044604F121
:10076000080000F0D7FD204600F0D4FD10BD01E0E8
:1007700000F002F8FCE77047BFF34F8F06480068AF
:1007800000F4E06005490843001D03490860BFF319
:100790004F8F00BFFEE700000CED00E00000FA05FF
:1007A0002DE9FE4F4768D0F808C0D0F80C80D0F88B
:1007B0001090D0F814A0CDF808A0D0F818A0CDF86B
:1007C00004A0D0F81CA0CDF800A00022012303252E
:1007D0004FF001160C885FE004F0010ABAF1000F37
:1007E00055D027EA030A91F802B00BFA02FB4AEA55
:1007F0000B0791F808A04FEA420B0AFA0BFA2CEA11
:10080000050B4AEA0B0C28EA030A91F80AB00BFA26
:1008100002FB4AEA0B0829EA060A91F803B002F142
:10082000100E0BFA0EFB4AEA0B0A91F804B00BFA11
:1008300002FB4AEA0B09DDF808A02AEA060A91F849
:1008400005B00BFA0EFB4AEA0B0A91F806B00BFA58
:1008500002FB4AEA0B0ACDF808A091F809A04FEA7A
:10086000420B0AFA0BFADDF804B02BEA050B4AEA50
:100870000B0ACDF804A0DDF800A02AEA030A91F8DB
:1008800007B00BFA02FB4AEA0B0ACDF800A05B00A6
:10089000AD007600521C6408002C9DD1DFF8C4A086
:1008A000504502D14FF01F0A01E04FF0000A27EA3D
:1008B0000A0AC0F804A0DFF8ACA0504502D14FF0FE
:1008C0001F0A01E04FF0000A2CEA0A0AC0F808A04B
:1008D000DFF890A0504502D14FF01F0A01E04FF021
:1008E000000A28EA0A0AC0F80CA0DFF878A05045F0
:1008F00002D14FF01F0A01E04FF0000A29EA0A0A6C
:10090000C0F810A0DFF85CA0504502D14FF01F0BDB
:1009100001E04FF0000BDDF808A02AEA0B0AC0F84E
:1009200014A0DFF840A0504502D14FF01F0B01E0AA
:100930004FF0000BDDF804A02AEA0B0AC0F818A05B
:10094000DFF820A0504502D14FF01F0B01E04FF01F
:10095000000BDDF800A02AEA0B0AC0F81CA0BDE8D5
:10096000FE8F000000000C40024613680B400BB1E4
:10097000012000E0002070470268054B984201D139
:100980001F2300E000230B439A43026070470000DE
:1009900000000C400268054B984201D11F2300E083
:1009A00000239A430A4302607047000000000C4095
:1009B0004FF6FF71018000218170C170017141719A
:1009C0008171C171017241728172704770477047C5
:1009D00001490860704700008800404210B5024697
:1009E0000C4BD86820F003001043D860586820F4FE
:1009F000706040EA01205860074B1B6843B1012337
:100A0000054C241D23600023034C883CC4F88C3023
:100A100010BD0000000002408800404238B50020B0
:100A2000009000BF212000F069F905460098401CA5
:100A300000900098B0F5C06F01D2002DF2D02120B7
:100A400000F05CF908B1012400E00024204638BD24
:100A50000149086070470000880140420146044A8D
:100A6000D06820F0F00040EA0110D060704700002C
:100A7000000002400146034AD06820F44070084359
:100A8000D0607047000002402DE9FC4F0146DFF8BE
:100A900064B2DBF80CB00BF0020BBBF1000F01D01D
:100AA000954B00E0944BDFF84CB2DBF80CB00BF048
:100AB000010BBBF1000F00D05B081C46DFF834B21D
:100AC000DBF80CB00BF0040BBBF1000F0DD0DFF81E
:100AD00024B2DBF804B0CBF3032B0BF1010BCDF800
:100AE00000B0DDF800B004FB0BF4DFF808B2DBF86F
:100AF0000CB0CBF3012BBBF1000F06D0BBF1010F03
:100B000008D0BBF1020F28D122E0DFF8ECB1C1F828
:100B100000B027E0DFF8DCB1DBF80CB04FF0080ED6
:100B20000EEA1B1BBBF1000F01D1A0460DE0DFF860
:100B3000C4B1DBF80CB0CBF3021B0BF1010B4FF08F
:100B4000010E0EFA0BFEB4FBFEF8C1F8008009E0BE
:100B50004FF4004BC1F800B004E049F6404BC1F837
:100B600000B000BF00BFDFF88CB1DBF810B00BF0B5
:100B7000020BBBF1000F01D05F4D00E05E4DDFF8CE
:100B800074B1DBF810B00BF0010BBBF1000F00D01B
:100B90006D082F46DFF85CB1DBF810B00BF0040BEA
:100BA000BBF1000F0DD0DFF84CB1DBF804B0CBF394
:100BB000031B0BF1010BCDF800B0DDF800B007FB13
:100BC0000BF7B946DFF82CB1DBF810B00BF0100BC7
:100BD000BBF1000F01D04FEA5909C1F80490DFF8CA
:100BE00014B1DBF818B04FEA1B1000F0080BBBF192
:100BF000000F02D1DFF800C10BE000F0070B0BF192
:100C0000010B4FF0010E0EFA0BF0DFF8ECB0BBFB5E
:100C1000F0FCC1F80CC0DFF8DCB0DBF8180000F025
:100C2000080BBBF1000F04D1DFF8CCB0CDF804B055
:100C30000DE000F0070B0BF1010B4FF0010E0EFA67
:100C40000BF0DFF8B4B0BBFBF0FBCDF804B0DDF87F
:100C500004B0C1F810B0DFF89CB0DBF814B00BF0B2
:100C6000030BBBF1000F06D0BBF1010F05D0BBF1A8
:100C7000020F06D103E01E4605E02E4603E026469D
:100C800001E03E4600BF00BFDFF868B0DBF814B0FB
:100C9000CBF3011BBBF1000F06D0BBF1010F06D057
:100CA000BBF1020F08D105E04FF4004206E049F61F
:100CB000404203E0324601E0624600BF00BFDFF879
:100CC00034B0DBF814B04FEA1B2000F0080BBBF186
:100CD000000F01D1924609E000F0070B0BF1010B68
:100CE0004FF0010E0EFA0BF0B2FBF0FAC1F808A0BB
:100CF000BDE8FC8F0000024000127A0010B50146EA
:100D000001F0E003202B02D1074B1A6801E0074BEA
:100D1000DA6B01F01F040123A34013400BB1012043
:100D200000E0002010BD00000000024000800D40E7
:100D30000D49896821F003010B4A9160012802D016
:100D400002280ED106E00849896841F00101064AEF
:100D5000916007E00449896841F00301024A91600B
:100D600000E000BF00BF70470000024038B500201F
:100D7000009000BF2220FFF7C1FF05460098401CED
:100D800000900098B0F5C06F01D2002DF2D0222063
:100D9000FFF7B4FF08B1012400E00024204638BD6D
:100DA00029B1064AD2690243044BDA6104E0034ADE
:100DB000D2698243014BDA617047000000000240B3
:100DC00070B505460C46054A02EBC4029188034AF9
:100DD00052F83400FFF7D0FD70BD0000C01C0008C1
:100DE0002DE9F05F04460D46164601274FF0000836
:100DF000012E09DB721EBA46C34650465946FFF71C
:100E0000D7F90746884602E00020BDE8F09F4FF082
:100E1000000925E004EA070005EA0801002358401C
:100E20005940084304D001210F4800F053F803E073
:100E300001210D48FFF7C4FF24196D41032000F084
:100E40002DFA0021084800F045F8032000F026FAAA
:100E500000210548FFF7B4FF09F1010000F0FF0988
:100E6000B145D7DBE0B2D0E7C01C0008704770473F
:100E7000704770B504460D4635B1012D16D0022DD0
:100E80000BD0032D24D11AE0A189A068FFF774FDCF
:100E9000A1882068FFF770FD1AE0A189A068FFF71C
:100EA00079FDA1882068FFF767FD11E0A189A0689E
:100EB000FFF762FDA1882068FFF76CFD08E0A189BB
:100EC000A068FFF767FDA1882068FFF763FD00BFFA
:100ED00000BF70BD70B505460C46054A02EBC40262
:100EE0009188034A52F83400FFF754FD70BD0000AA
:100EF000C01C000802480068401C01490860704797
:100F00002800002000204FF0E021086102484861DD
:100F100007200861704700007F38010030B5204C81
:100F2000E46804F00204022C01D11E4800E01D48D0
:100F30001B4CE46804F0010404B140080146184C5D
:100F4000E46804F00404042C05D1154C6468C4F36F
:100F50000324631C5943124CE468C4F3012424B1F4
:100F6000012C06D0022C13D10DE00E4C0E4D2C603E
:100F700013E00B4CE468C4F30314641CB1FBF4F2FB
:100F8000094C226009E04FF40044074D2C6004E056
:100F900049F64044044D2C6000BF00BF30BD000046
:100FA0000000024000127A003000002000B510203E
:100FB0000749C8610020C8604860886008614861CE
:100FC0008861086248628862C862FFF7A7FF00BDB7
:100FD000000002400246104B586A104B9A4205D15D
:100FE00020F0FF00084340F0807012E00C4B9A4262
:100FF00006D120F47F4040EA012040F0007008E074
:10100000084B9A4205D120F47F0040EA014040F0AD
:101010008060014B586270470000024000000740AA
:101020000080074000000840426D8A4342657047D7
:101030000A46C16812B141F0010101E021F001014D
:10104000C160704730B50C8804604C8844608C885F
:101050008460CC880D892C444D892C448D892C4486
:10106000CD896319C3604C8A0D8A04EB05148D8AFF
:101070002C44CD8A6219026530BD00210180418077
:101080008180C180018141818181C1810182418250
:101090008182C18270470021C1600160416081602E
:1010A000016241628162C162016341638163C16324
:1010B000016641668166C166016141618161C1610C
:1010C000016741678167C167016441648164C164EC
:1010D000016541658165C16570470246536D0B40EE
:1010E0000BB9002000E0012070478160704701606B
:1010F00070477047704770477047704702460B4B08
:10110000986A0B4B9A4205D140F0807020F0FF00A6
:10111000084308E0074B9A4205D140F0007020F4E4
:101120007F4040EA0120014B986270470000024076
:10113000000003400080034021B1026B42F0010235
:10114000026304E0026B4FF6FE731A4002637047BD
:10115000024693690B400BB1012000E0002070476C
:101160002DE9F04F87B004460D4601A8FFF78CFC2F
:10117000019F2448866A2448844206D106F007016C
:1011800001208840B7FBF0F708E02048844205D1F1
:10119000C6F3022101208840B7FBF0F728688008D9
:1011A000B7FBF0F94FEA991809F03F0AB8000AEBCB
:1011B0008811B0FBF1FB2868ABEB0000C001296887
:1011C000B0FBF1F006900698022803D9002007B082
:1011D000BDE8F08FC4F82480C4F828A0E66AA88887
:1011E000E988084329890843698908430643E66278
:1011F000266B4FF680708643A8890643266301203C
:10120000E5E70000000002400000034000800340CA
:10121000CAB202607047704700BFFEE770473038BF
:101220000A2801D2012070470020704770B5064699
:1012300014461D4622462B46304600F011F870BD7C
:1012400070B500210C460D464FF400231C435B1083
:101250001C4322462B46002000F002F870BD00001F
:1012600070B5044615461E4602210B48FFF7A8FD3F
:10127000052220460021FFF7B3FD242228463146EF
:10128000FFF7AEFD01210448FFF79AFD0221024855
:10129000FFF720FE70BD0000C01C000810B504461A
:1012A00004EB84000122C2EB400081B20D48FFF73D
:1012B0001CFF00210B48FFF71AFF01210948FFF727
:1012C000B7FE00BF02210748FFF707FF0028F9D04B
:1012D00000210448FFF7ACFE02210248FFF7A4FEFC
:1012E00010BD00000080074070B5002500240725D0
:1012F00000BF06E0064901EBC40000F00BF8601CDB
:10130000C4B2AC42F6DB02210148FFF7E3FD70BD39
:10131000C01C00083EB504462168C1F3C432012157
:1013200001FA02F0FFF73CFD6846FFF741FBA08899
:10133000ADF8000001208DF8020000208DF80800B3
:1013400001208DF80A0002208DF809006946206806
:10135000FFF726FA3EBD000010B50121C803FFF7D4
:101360001FFD0C48FFF797FE0B48FFF786FE002194
:101370000848FFF72FFE0320074948800720888090
:101380000020C8800881C88108800248FFF75AFE03
:1013900010BD000000800740B60000208AB0FFF7B3
:1013A0002DF9FFF7AFFDFFF7C5F901214E48FFF713
:1013B00060FD00F0A9F9102000F05CF9FFF740FF94
:1013C000132000F057F9FFF73BFF162000F052F909
:1013D000FFF736FF192000F04DF9FFF731FF4FF40A
:1013E000E13280214148FFF741F941488169C069F4
:1013F000CDE908103E4801694069CDE906103C4935
:101400008868C968CDE904013948816BC06BCDE9B2
:1014100002103748016B406B36A2CDE90010322133
:101420003B48FEF7D9FE3A48FFF762F9304800F032
:1014300073F82F498869C969CDE908012C48016909
:101440004069CDE906102A498868C968CDE90401D8
:101450002748816BC06BCDE902102548016B406BBA
:1014600024A2CDE9001032212948FEF7B5FE284814
:10147000FFF73EF937E01E48046B436B224610200D
:10148000FFF7D4FE102000F0F5F841F6E730FFF743
:1014900005FF1748846BC36B22461020FFF7C6FE7A
:1014A000102000F0E7F841F6E730FFF7F7FE2021C3
:1014B0001848FFF759FA20B120211648FFF75CFAC7
:1014C00003E020211348FFF765FA10211148FFF7C8
:1014D0004BFA20B110210F48FFF74EFA03E010211C
:1014E0000C48FFF757FAC6E70000002000800340D1
:1014F00034000020256C6C755F256C6C755F256C65
:101500006C755F256C6C755F256C6C750D0A000041
:101510008400002000800E402DE9FF470446002192
:101520001020216060605048A060E1604F48206159
:1015300061614010A061E1614D490020216260625B
:101540004A49A162E06222696169104600F038FAF6
:10155000CDE90201A268E168104600F031FA0746C1
:10156000884622686168104600F02AFA3A464346E7
:10157000CDE9000100F0CCF80546DDE9022300F0DA
:1015800065FA814600F060FB20636163A269E1694E
:10159000104600F015FA07468846A268E168104632
:1015A00000F00EFA05460E4622686168104600F00B
:1015B00007FA81462A46334600F0AAF83A464346DF
:1015C000CDE9000100F042FACDE9020100F03CFB58
:1015D000A063E163226A616A104600F0F1F9814676
:1015E0008A46A268E168104600F0EAF90746884694
:1015F00022686168104600F0E3F905463A46434622
:1016000000F086F84A465346CDE9000100F01EFA84
:10161000CDE9020100F018FB20646164A26AE16A6E
:10162000104600F0CDF981468A46A268E16810466E
:1016300000F0C6F905460E4622686168104600F0C3
:10164000BFF907462A46334600F062F84A46534639
:10165000CDE9000100F0FAF9CDE9020100F0F4FA59
:10166000A064E164BDE8FF8780C3C90100093D00B3
:10167000C0C62D0070B50446002504B970BD132CFA
:1016800013D003DC3CB1102C2AD105E0162C15D068
:10169000192C25D11BE024E006211A48FFF790FB06
:1016A00005211848FFF78CFB1BE006211548FFF7C2
:1016B00087FB05211348FFF70DFC12E006211148B6
:1016C000FFF708FC05210F48FFF77AFB09E0062128
:1016D0000C48FFF7FFFB05210A48FFF7FBFB00E082
:1016E00000BF00BF03210748FFF7F4FB002501E01E
:1016F000681CC5B2322DFBDB03210248FFF760FBFB
:1017000000BFBBE7C01C000810B5FFF725FE10BDE9
:101710002DE9C04130B4DFF8A0C23CEA111418BF73
:101720003CEA131400F0EC8081EA03051CEA111472
:1017300044EAD57418BF1CEA131500F0C780A4EB67
:1017400005044FF0004545EAC12145EAC32341EABB
:10175000505143EA525304F17F74994204F5003426
:101760004FEAC0204FEAC22208BF904200F09C809E
:101770004FEA13650FF24016765D4FEA134506FBFC
:1017800005F7C7F1807706FB07F74FEAD737A7FBC6
:1017900003687642C8F58038A7FB06CE38BFA8F1AB
:1017A000010807FB08E64FF0000EA6FB028CE6FBE3
:1017B00003CEDCF1000CCEF1004E38BFAEF1010ECD
:1017C000A6FB0C584FF000074FF00005E6FB0E8714
:1017D000A1FB08C6A0FB07CE16EB0E0645F10005DF
:1017E000E1FB076515F1E04E7EBFA4F580345FEAAA
:1017F00046066D4116F1800745F100054FEA1727AF
:101800004FEA066647EA0567A6F1DE46B6F1805F55
:101810004FEA15251FD9384624F0010C05EBC47199
:10182000BCF1FE6F01EB0C1102D8F0BCBDE80081E9
:1018300024425CBF01F5801E9EEAC47F02D4F0BC46
:10184000BDE80081244238D4F0BCA1F1C041BDE81C
:10185000004100F0F3B94FEAD22242EA43524FEA84
:10186000D323A7FB02864FEAD02040EA415007FB72
:1018700003661EEA0E0F4FEAD12105FB026658BF30
:10188000A6EB0056B6EB00564FEA520E4EEAC37E68
:1018900018EB0E0E56EB530EBDD518EB02085E4149
:1018A0007F1C55F10005B6E74FF480154FF0000797
:1018B0004FF000064FF00008ADE7F0BC4FF000001D
:1018C00001F1C04101F00041BDE8008111EA0C1FA7
:1018D0000CEA131500D00CE013EA0C1F00F0258071
:1018E0004FF00000F0BC81EA030101F00041BDE8C7
:1018F0000081F0BCBDE8004181EA030100F09EB91F
:10190000F0BCBDE8004170B500F04AF9097EFC3E2C
:1019100000F007B881EA03014FF0000001F0004138
:10192000704781EA030100F089B9F0BCBDE80041CD
:101930004FF0000021497047FFFDFBF9F7F5F4F285
:10194000F0EEEDEBE9E8E6E4E3E1E0DEDDDBDAD85A
:10195000D7D5D4D3D1D0CFCDCCCBCAC8C7C6C5C4B8
:10196000C2C1C0BFBEBDBCBBBAB9B8B7B6B5B4B3CF
:10197000B2B1B0AFAEADACABAAA9A8A8A7A6A5A4BA
:10198000A3A3A2A1A09F9F9E9D9C9C9B9A9999987E
:101990009797969595949393929191908F8F8E8E21
:1019A0008D8C8C8B8B8A89898888878786858584AE
:1019B00084838382828181800000FF070000F87F9A
:1019C000B1FA81F30B3B20D3994010D1B0FA80F3E8
:1019D00010FA03F108BF7047C3F11D0303F58063DC
:1019E0004FEAD1224FEA415002EB03517047C3F155
:1019F000200C20FA0CFC9840C3F1320303F58063FD
:101A000041EA0C0101EB0351704710B5C3F100042A
:101A1000C3F1320CC4F1200E0CF5806201FA0EFC09
:101A200021FA04F100FA0EF3E040BDE8104040EA6C
:101A30000C0001EB025138BF7047401C41F100011E
:101A40005B0008BF20F0010070470000DFF848C1CC
:101A500070B51CEA111E1EBF1CEA13159EEA0C0F7E
:101A600095EA0C0F00F06F8081EA030423EA4C131F
:101A70004EEAD47E21EA4C1141F4801143F48013E4
:101A8000AE44A1FB024CA0FB0365AEF17F7E36198C
:101A900055EB0C05A1FB034C4CF10003A0FB021C11
:101AA00016EB0C06654153F10003094218BF46F0DE
:101AB000010613F4007F0BD14FEA03314FEA0530E2
:101AC000340341EA155140EA16506FF003020AE070
:101AD0004FEAC3214FEAC520F40241EA555140EADA
:101AE00056506FF0020202EB2E4201EB025585EADE
:101AF000CE710AD05FEA440C18BF24F0004450F1C4
:101B0000000041F1000120EAD47040F2FE7C624501
:101B100000D270BDA84214BF4FF080444FF0404443
:101B2000002E08BF0024BEF1806FA8BFA1F1C04104
:101B3000BDE8704080F282804FF0000001F1C041AA
:101B400001F0004170479EEA0C0F0CEA131518BF14
:101B500095EA0C0F06D04FF0000081EA030E0EF05C
:101B6000004170BD00F01CF88900013E00F007B88C
:101B700000F009B84FEA430C5FEA5C5C08D081EAE8
:101B8000030100F05BB84FEA410C5FEA5C5CF6D100
:101B90004FF00000014970470000FF070000F87F88
:101BA0000EF1020E2EF0030E5EF8046B364205D4E1
:101BB000012A43EB030515F5001F12D8012841EB5C
:101BC000010C1CF5001F0CD80ED14FEAD17C15F585
:101BD000001F0CEB4C0C0CF1020C08BF4CEBD37C3F
:101BE00004E04FF0080C01E04FEAD37C0CEB4C050D
:101BF00026FA05F606F00706B6F1040C06D20EEB3F
:101C0000860CBDE870404CF0010C6047DFE80CF03A
:101C1000090B02024FF000414FF00000A1F5002136
:101C200070BD19461046012851EB010418BFD4F5C8
:101C3000001484BF002001F0004170BD0808A0F529
:101C400000114FEA310170474FEAC1230A1543EAF8
:101C500050534FEAC02C18BF43F000431BD4A2F2EC
:101C60004E02D2F57C72C0F22080502AA8BF5022CA
:101C700023FA02F12CFA02F060B4D2F1200284BF00
:101C800003FA02F52843C2F100029CBF23FA02F5D1
:101C9000284360BC704701F1804212F5801F04DACE
:101CA0004FF000004FF00001704770B5FFF778FF6C
:101CB00049922480002001E06FEAE17001467047FC
:101CC00000800B400200000000000B4000040000F8
:101CD00000800A401000000000800A402000000040
:101CE00000800A400200000000800A400800000056
:101CF00000800A4001000000181D000800000020BC
:101D000034000000FC0000084C1D000834000020D6
:101D1000FC0600001801000800800E4010000000C2
:101D200000800E40200000000000000000000000C5
:101D300000800E401000000000800E4020000000D7
:0C1D4000000000000000000000127A000B
:04000005080000C12E
:00000001FF
